:100000000C942A000C9447000C9447000C94470071
:100010000C9447000C9447000C9447000C94470044
:100020000C9447000C9447000C9447000C94470034
:100030000C9447000C9447000C9447000C94470024
:100040000C9447000C9447000C9447000C94470014
:100050000C94470011241FBECFE5D8E0DEBFCDBF12
:1000600012E0A0E6B0E0ECEAF1E102C005900D92EA
:10007000A236B107D9F712E0A2E6B2E001C01D92A4
:10008000AB36B107E1F70E940D030C94D4080C9431
:100090000000CF93DF93582FE6E5F0E044EAA1E2B9
:1000A000B0E0C3E2D0E030EA24E8408380818823D6
:1000B000ECF78C91887F8830D1F53883208380815C
:1000C0008823ECF78C91887F883179F793B984E89D
:1000D00086BFE6E5F0E080818823ECF781B1887F78
:1000E000883229F553B984E886BFE6E5F0E08081DF
:1000F0008823ECF781B1887F8832C9F463B984E83A
:1001000086BFE6E5F0E080818823ECF781B1887F47
:10011000883269F484E986BFE6E5F0E0808184FDF9
:10012000FDCF80EC9DE50197F1F781E001C080E013
:10013000DF91CF910895CF93DF93582FE6E5F0E05C
:1001400044EAA1E2B0E0C3E2D0E030EA24E8408330
:1001500080818823ECF78C91887F883009F050C02B
:100160003883208380818823ECF78C91887F8831C5
:1001700071F793B984E886BFE6E5F0E080818823D3
:10018000ECF781B1887F8832D9F553B984E886BF0E
:10019000E6E5F0E080818823ECF781B1887F883242
:1001A00079F584EA86BFE6E5F0E080818823ECF704
:1001B00081B1887F803121F581EA83B984E886BFE7
:1001C000E6E5F0E080818823ECF781B1887F803418
:1001D000B9F484E886BFE6E5F0E080818823ECF797
:1001E00081B1887F883561F493B184E986BFE6E503
:1001F000F0E0808184FDFDCFFB01908381E001C0B0
:1002000080E0DF91CF9108950E940701089582E078
:1002100080B911B882B984E086BF089584EA86BFA8
:10022000E6E5F0E080818823ECF7089584E986BF55
:10023000089583B984E886BFE6E5F0E080818823ED
:10024000ECF7089584EC86BFE6E5F0E08081882332
:10025000ECF783B1089584E886BFE6E5F0E080819D
:100260008823ECF783B1089581B1887F08950E94B7
:1002700004010E94DF010E9434080895CF92DF92AA
:10028000EF92FF920F931F93CF93DF9320E0EE2422
:10029000FF246894E4F80AE310E0CBE3D0E0CC2438
:1002A000DD24E9E3F0E030E0C701022E02C0880F50
:1002B000991F0A94E2F7D8018C9380958883A60150
:1002C000808190E0042E02C0959587950A94E2F70C
:1002D00080FD4BC02F5FCA01880F991F880F991F9F
:1002E000820F8A3061F18B3070F4863001F18730F3
:1002F00028F48430C1F0853079F517C08830D9F002
:100300008930D8F416C08D3001F18E3028F48B304E
:10031000C1F08C3009F517C08F30D9F08F30B8F0AC
:100320008031D1F418C081E417C084E015C085E0A5
:1003300013C086E011C082E40FC087E00DC088E0E2
:100340000BC089E009C083E407C08AE205C080E0F1
:1003500003C083E201C084E4DF91CF911F910F912C
:10036000FF90EF90DF90CF9008954F5F5F4F443044
:10037000510509F0A5CF2F5F243008F495CF232F26
:1003800093CFE2E3F0E090819F7B908390819F7D0B
:10039000908320ED37E0D9011197F1F790819061BA
:1003A0009083D9011197F1F788BBC9010197F1F743
:1003B00080818F7E8083C9010197F1F70895E1E381
:1003C000F0E0808180678083E7E3F0E080818FEF59
:1003D000808388E30E94C1018CE00E94C10181E01A
:1003E0000E94C1010895E2E3F0E09081906490835F
:1003F00090819F7D908320ED37E0D9011197F1F72F
:10040000908190619083D9011197F1F788BBC90160
:100410000197F1F780818F7E8083C9010197F1F701
:1004200008951F93CF93DF93EC018881882351F0C7
:1004300010E00E94F3011F5FFE01E10FF11D8081BA
:100440008823B9F7DF91CF911F910895813039F05A
:10045000813050F0823029F0833031F404C0605C88
:1004600003C0605F01C0605B862F80680E94C1018D
:1004700008950F931F938A010E942602C8010E94CB
:1004800011021F910F91089581E00E94C10108950A
:100490000F931F93DF93CF93CDB7DEB760970FB65F
:1004A000F894DEBF0FBECDBF90E08E010F5F1F4FEF
:1004B000B8014AE050E00E948F08C8010E94110272
:1004C00060960FB6F894DEBF0FBECDBFCF91DF911F
:1004D0001F910F9108959F92AF92BF92CF92DF929A
:1004E000EF92FF920F931F93DF93CF930F92CDB7AD
:1004F000DEB70F2EF2E6EF2EF2E0FF2EF02DDD2418
:10050000D39400E010E05E010894A11CB11CCC243F
:10051000C3949924C8014096B5010E949B0089812B
:10052000882319F4F701108203C0F701C082D92C87
:10053000023021F0053011F0083031F4F1E0DF161F
:1005400011F481E00AC0DC2C0F5F1F4F0894E11CFE
:10055000F11C09301105F1F680E00F90CF91DF9189
:100560001F910F91FF90EF90DF90CF90BF90AF90D1
:100570009F9008956F927F928F929F92AF92BF92B9
:10058000DF92EF92FF920F931F93DF93CF930F921F
:10059000CDB7DEB78C0119820E944402D02EE02E26
:1005A000FF240F2EF3E0AF2EBB24F02DA00EB11EC2
:1005B000EA14FB041CF510E03E010894611C711C58
:1005C0000F2EFBE78F2EF1E09F2EF02DC7014096F6
:1005D000B3010E949B00C701880F991FF401E80F27
:1005E000F91F40815181812F60E00E943902D3942C
:1005F000ED2CFF241F5FEA14FB0444F30F90CF910E
:10060000DF911F910F91FF90EF90DF90BF90AF901F
:100610009F908F907F906F9008952F923F924F926E
:100620005F926F927F928F929F92AF92BF92CF9282
:10063000DF92EF92FF920F931F93DF93CF9300D03F
:1006400000D0CDB7DEB70E943701DE011196E6E992
:10065000F1E083E001900D928150E1F70E940506E0
:100660000E9460060F2EF0E66F2EF0E07F2EF02D38
:100670000F2EFEE64F2EF0E05F2EF02D0F2EFAE744
:100680002F2EF0E03F2EF02D0F2EF8ECAF2EBB24D6
:10069000F02D21C00E94440280E060E0A3010E948E
:1006A000390281E060E0A2010E94390282E060E04C
:1006B000A1010E94390208E813E107C09801C501B1
:1006C0000197F1F721503040D1F70E943E0181346B
:1006D000A9F70E9460060E946B028130D9F20E9445
:1006E000440280E066E044E850E00E94390281E084
:1006F00060E04BE850E00E94390282E060E043E9AC
:1007000050E00E94390208E813E107C09801C501D2
:100710000197F1F721503040D1F70E943E01882324
:10072000A9F780E090E00E94BA0209810F2EF8E854
:10073000EF2EF3E1FF2EF02D0AC00E943E01082F9C
:100740009701C5010197F1F721503040D1F70130F1
:1007500041F4E2E6F2E08081882379F381E0898345
:1007600013C0023041F4E3E6F2E08081882329F3EC
:1007700082E0898309C0033001F7E4E6F2E080817A
:100780008823D9F283E0898383E060E00E94260217
:10079000802F805D0E94F3018EE990E00E9411029B
:1007A000E02FF0E0E457FE4FC08028E833E1C501B8
:1007B0000197F1F721503040D1F783E090E00E949B
:1007C000BA020A810F2EF8E8EF2EF3E1FF2EF02D8A
:1007D0000AC00E943E01082F9701C5010197F1F759
:1007E00021503040D1F7043041F4E5E6F2E0808159
:1007F000882379F384E08A8313C0053041F4E6E668
:10080000F2E08081882329F385E08A8309C00630DD
:1008100001F7E7E6F2E080818823D9F286E08A8357
:1008200083E060E00E942602802F805D0E94F30139
:100830008EE990E00E941102E02FF0E0E457FE4FB5
:10084000D08028E833E1C5010197F1F7215030400D
:10085000D1F786E090E00E94BA020B810F2EF8E8F3
:10086000EF2EF3E1FF2EF02D0AC00E943E01082F6B
:100870009701C5010197F1F721503040D1F70730BA
:1008800041F4E8E6F2E08081882379F387E08B8306
:1008900013C0083041F4E9E6F2E08081882329F3AF
:1008A00088E08B8309C0093001F7EAE6F2E0808135
:1008B0008823D9F289E08B8383E060E00E942602DE
:1008C000802F805D0E94F3018EE990E00E9411026A
:1008D000802F90E04C01089481089108F401E357BF
:1008E000FE4F108128E833E1C5010197F1F721504F
:1008F0003040D1F70E94440280E060E04BEA50E0D3
:100900000E94390281E060E04BEB50E00E94390226
:100910008D2D8C0D810F0E94480282E060E045EC35
:1009200050E00E9439020E943E01823068F008E8DF
:1009300013E10E943E019801F5013197F1F7215032
:100940003040D1F78230A8F7813009F078C00F2EFF
:10095000F5EDCF2EF0E0DF2EF02DC6010E944F08FE
:10096000898190E001970BE711E0880F991FF8014A
:10097000E80FF91F808191810E944F080F2EF0EF40
:10098000EF2EF0E0FF2EF02DC7010E944F088A8164
:1009900090E00197880F991FF801E80FF91F8081F7
:1009A00091810E944F08C7010E944F08C401880F1F
:1009B000991F080F191FF801808191810E944F082B
:1009C000C7010E944F08C6010E944F080E944402BE
:1009D00080E060E043EF50E00E9439027E0108941D
:1009E000E11CF11CCC24DD246894C2F8CC0EDD1E81
:1009F0000F2EF0E28F2EFEE49F2EF02DF7010191D5
:100A00007F0110E0015F1F4FC801B6010E949B00EB
:100A1000C4010197F1F76C816150C8010E9449003F
:100A2000C4010197F1F7EC14FD0441F728E833E124
:100A3000C5010197F1F721503040D1F710C00E9455
:100A4000440280E060E043E051E00E94390228E87F
:100A500033E1C5010197F1F721503040D1F71982F8
:100A60001A821B8238CE8F929F92AF92BF92CF9202
:100A7000DF92EF92FF920F931F93DF93CF93CDB747
:100A8000DEB728970FB6F894DEBF0FBECDBF0E9429
:100A9000440280E060E049E951E00E94390220E12F
:100AA00037E248EC50E0CA010197F1F7215030409D
:100AB000D1F781E060E00E9426026E010894C11C1B
:100AC000D11C76010F2EF8E8AF2EF3E1BF2EF02DEA
:100AD00008EC10E00F2EF5E08F2E9924F02D8C0EEF
:100AE0009D1E91C0C8010197F1F721503040D1F708
:100AF0000E943E018A3008F086C0F70181937F0191
:100B00008AE20E94F301E814F90409F472C07BC080
:100B1000C801B7010E949B00F6019081F701808116
:100B2000981761F40F5F1F4F0894E11CF11C0894A3
:100B3000C11CD11C0632110559F756C028E833E113
:100B400048EC50E0CA010197F1F721503040D1F74D
:100B50000E94440280E060E048EA51E00E943902CD
:100B600081E060E044EB51E00E94390228E833E183
:100B700048EC50E0CA010197F1F721503040D1F71D
:100B800081E01FC0CA010197F1F721503040D1F731
:100B90000E94440280E060E040EC51E00E94390293
:100BA00081E060E04DEC51E00E94390228E833E139
:100BB00048EC50E0CA010197F1F721503040D1F7DD
:100BC00080E028960FB6F894DEBF0FBECDBFCF9160
:100BD000DF911F910F91FF90EF90DF90CF90BF902A
:100BE000AF909F908F90089528E833E148EC50E053
:100BF000C9CF0F2EF5E0EF2EFF24F02DEC0EFD1ED9
:100C000002E210E085CF95016DCFEF92FF920F9336
:100C10001F93DF93CF930F92CDB7DEB786E090E0BE
:100C2000BE016F5F7F4F0E949B0080E29EE40197B0
:100C3000F1F78981833609F43BC082E290E060E0FD
:100C40000E94490000E21EE4C8010197F1F783E227
:100C500090E060E00E944900C8010197F1F784E24A
:100C600090E060E00E944900C8010197F1F785E239
:100C700090E060E00E944900C8010197F1F700E1AF
:100C800010E00F2EF0E2EF2EFEE4FF2EF02DC80153
:100C900060E00E944900C7010197F1F70F5F1F4F05
:100CA0000A311105A1F786E090E063E60E94490051
:100CB0000F90CF91DF911F910F91FF90EF900895CA
:100CC0002F923F924F925F926F927F928F929F925C
:100CD000AF92BF92CF92DF92EF92FF920F931F934A
:100CE000DF93CF93CDB7DEB729970FB6F894DEBF69
:100CF0000FBECDBF0E9433058823E1F70E94440256
:100D000080E060E045ED51E00E94390281E060E062
:100D100041EE51E00E94390282E060E041EF51E093
:100D20000E94390283E060E04CEF51E00E943902FA
:100D30000E943E01982F81508330A8F00F2EF8E8D2
:100D4000EF2EF3E1FF2EF02D08EC10E09701C80123
:100D50000197F1F721503040D1F70E943E01982FC2
:100D60008150833098F7913009F09BC00E94440273
:100D700080E060E049E052E00E94390281E060E0FA
:100D80000E9426026E010894C11CD11C56010F2E30
:100D9000F8E88F2EF3E19F2EF02D08EC10E00F2ED7
:100DA000F5E0EF2EFF24F02DEC0EFD1E3FC1C80133
:100DB0000197F1F721503040D1F70E943E018A306F
:100DC00008F034C1F50181935F018AE20E94F301CA
:100DD000AE14BF0409F41EC129C182E290E0B8013B
:100DE0000E949B00F7019081F8018081981749F4D7
:100DF0000F5F1F4F0894E11CF11C0815190569F7D6
:100E0000CEC00E94440280E060E046E152E00E94D1
:100E1000390281E060E046E252E00E94390288E84F
:100E200093E128EC30E0F9013197F1F70197D9F718
:100E300002C1CA010197F1F721503040D1F70E9459
:100E4000440280E060E04EE252E00E94390281E01C
:100E500060E00E9426020F2EF8E8EF2EF3E1FF2E4D
:100E6000F02D08EC10E0D4C0C8010197F1F7215033
:100E70003040D1F70E943E018A3008F0C9C0F60127
:100E800081936F018AE20E94F301AC14BD0409F45E
:100E90008BC0BEC0CA010197F1F721503040D1F795
:100EA000CAC0923009F0C7C00E9444020F2EFBE76F
:100EB0008F2EF1E09F2EF02DAA24BB246894A4F875
:100EC0000F2EFBE34F2EF2E05F2EF02D662463948D
:100ED0000F2EF8E82F2EF3E13F2EF02D08EC10E056
:100EE000C101C22C792E698680E060E0A2010E94D7
:100EF0003902F40140815181862D60E00E9439025F
:100F000082E060E00E942602EE24DD2491C0F80118
:100F10003197F1F70197D9F70E943E01F82EF9E0D9
:100F2000F81728F483E2F81609F082C003C093E2B0
:100F3000891731F48D2D6AE00E948308D82E0FC0E6
:100F40000E944802EE2031F4EAE0FE9ED02C1124EB
:100F5000E9846EC0F1E0EF1609F06AC0DF0CC5014C
:100F60006D2D0E94490083E060E04AE452E00E9457
:100F700039029101C8010197F1F721503040D1F7B2
:100F80000E94440282E090E0880E991E0894A11C01
:100F9000B11C99E1A916B10409F0A6CF4CC028E80C
:100FA00033E148EC50E045CF82E290E069810E9455
:100FB000490000E21EE4C8010197F1F783E290E0E6
:100FC0006A810E944900C8010197F1F784E290E02C
:100FD0006B810E944900C8010197F1F785E290E01A
:100FE0006C810E944900C8010197F1F70E944402F8
:100FF00080E060E042E552E00E94390286E090E045
:1010000063E60E94490028E833E148EC50E042CF13
:1010100097012ACF8E010B5F1F4F76010F2EF9E04B
:101020008F2E9924F02D8C0E9D1ED7CE9401BFCE0D
:101030008C2D972D6CCF29960FB6F894DEBF0FBE7E
:10104000CDBFCF91DF911F910F91FF90EF90DF9077
:10105000CF90BF90AF909F908F907F906F905F9058
:101060004F903F902F90089582E08BB988E18AB924
:10107000E0E4F0E086E88083108287E689B908958D
:10108000982FEBE2F0E0808185FFFDCF9CB90895B9
:10109000EBE2F0E080818823ECF78CB108951F9398
:1010A000CF93DF93EC018881882351F010E00E94F8
:1010B00040081F5FFE01E10FF11D80818823B9F711
:1010C000DF91CF911F910895EF92FF921F93CF93DD
:1010D000DF937C010E944808F7018083833259F036
:1010E00010E01F5FE701C10FD11D0E9448088883EF
:1010F0008332B9F77E01F7011082DF91CF911F9102
:10110000FF90EF900895991B79E004C0991F9617FE
:1011100008F0961B881F7A95C9F780950895FB0102
:101120009F01E8944230C4F04532B4F44A3029F4C7
:1011300097FB1EF4909581959F4F642F77270E940F
:10114000C008805D8A330CF0895D8193CB010097E4
:10115000A1F716F45DE251931082C9010C94B00816
:10116000DC01FC01672F71917723E1F7329704C00E
:101170007C916D9370836291AE17BF07C8F3089599
:10118000AA1BBB1B51E107C0AA1FBB1FA617B707AD
:1011900010F0A61BB70B881F991F5A95A9F78095C9
:0C11A0009095BC01CD010895F894FFCF9C
:1011AC004D697373696E67204974656D7300506C7B
:1011BC00656173652063616C6C00746865206F7782
:1011CC006E65720048656C6C6F21005072657373AC
:1011DC00203000546F204F72646572212100206909
:1011EC00732053656C6563746564004F726465723B
:1011FC0020636F6D706C6574656400507269636513
:10120C002069732000312D3E4F4B20302D3E436121
:10121C006E63656C002D2D2D2D2D2D2D2D2D2D2D31
:10122C002D2D2D2D2D2D2D2D2D2D2D2D2D0D0A0052
:10123C000D0A004F726465722041636365707465BA
:10124C006421004F726465722043616E63656C6C3F
:10125C00656400312D4269672054617374790032E2
:10126C002D426967204D616300332D4368656573BA
:10127C00652042757267657200342D4672656E6327
:10128C006820467269657300352D4368656573790E
:10129C0020467269657300362D436F6C65736C6103
:1012AC007700372D506570736900382D436F63617B
:1012BC00636F6C6100392D3755500013011F0129E4
:1012CC000139014801570162016A017501323C4143
:1012DC000F140A0A0A0A000000456E746572205049
:1012EC00617373776F72640050617373776F72649C
:1012FC0020697300696E636F7272656374212100DB
:10130C0050617373776F72647320697300636F72CB
:10131C00726563740048656C6C6F204F776E6572F4
:10132C0000312D456469742050617373776F72645A
:10133C0000322D41646420466F6F6400332D4F7270
:10134C00646572204D6F6465004F6C64205061734E
:10135C0073776F72640050617373776F726473206C
:10136C00646F6E2774006D617463682121004E6593
:10137C00772050617373776F726400456E74657279
:10138C00205175616E7469747900205361766564BF
:10139C00210050617373776F7264205361766564BA
:0213AC0000003F
:00000001FF
